{
  "contractName": "Bank",
  "abi": [
    {
      "inputs": [
        {
          "internalType": "contract Token",
          "name": "_token",
          "type": "address"
        }
      ],
      "stateMutability": "nonpayable",
      "type": "constructor"
    },
    {
      "inputs": [],
      "name": "LOCK_TIME",
      "outputs": [
        {
          "internalType": "uint256",
          "name": "",
          "type": "uint256"
        }
      ],
      "stateMutability": "view",
      "type": "function",
      "constant": true
    },
    {
      "inputs": [
        {
          "internalType": "address",
          "name": "",
          "type": "address"
        }
      ],
      "name": "canWithdraw",
      "outputs": [
        {
          "internalType": "bool",
          "name": "",
          "type": "bool"
        }
      ],
      "stateMutability": "view",
      "type": "function",
      "constant": true
    },
    {
      "inputs": [
        {
          "internalType": "address",
          "name": "",
          "type": "address"
        }
      ],
      "name": "clientsBalanceBNB",
      "outputs": [
        {
          "internalType": "uint256",
          "name": "",
          "type": "uint256"
        }
      ],
      "stateMutability": "view",
      "type": "function",
      "constant": true
    },
    {
      "inputs": [
        {
          "internalType": "address",
          "name": "",
          "type": "address"
        }
      ],
      "name": "depositTimeStamp",
      "outputs": [
        {
          "internalType": "uint256",
          "name": "",
          "type": "uint256"
        }
      ],
      "stateMutability": "view",
      "type": "function",
      "constant": true
    },
    {
      "inputs": [
        {
          "internalType": "address",
          "name": "",
          "type": "address"
        }
      ],
      "name": "isDeposited",
      "outputs": [
        {
          "internalType": "bool",
          "name": "",
          "type": "bool"
        }
      ],
      "stateMutability": "view",
      "type": "function",
      "constant": true
    },
    {
      "inputs": [
        {
          "internalType": "address",
          "name": "",
          "type": "address"
        }
      ],
      "name": "secondDepositTimeStamp",
      "outputs": [
        {
          "internalType": "uint256",
          "name": "",
          "type": "uint256"
        }
      ],
      "stateMutability": "view",
      "type": "function",
      "constant": true
    },
    {
      "inputs": [],
      "name": "tokensBMIWVendidos",
      "outputs": [
        {
          "internalType": "uint256",
          "name": "",
          "type": "uint256"
        }
      ],
      "stateMutability": "view",
      "type": "function",
      "constant": true
    },
    {
      "inputs": [
        {
          "internalType": "uint256",
          "name": "amount",
          "type": "uint256"
        }
      ],
      "name": "buyBMIW",
      "outputs": [],
      "stateMutability": "payable",
      "type": "function",
      "payable": true
    },
    {
      "inputs": [],
      "name": "deposit",
      "outputs": [],
      "stateMutability": "payable",
      "type": "function",
      "payable": true
    },
    {
      "inputs": [],
      "name": "deposit10Min",
      "outputs": [],
      "stateMutability": "payable",
      "type": "function",
      "payable": true
    },
    {
      "inputs": [],
      "name": "withdraw10Min",
      "outputs": [],
      "stateMutability": "payable",
      "type": "function",
      "payable": true
    },
    {
      "inputs": [],
      "name": "withdraw",
      "outputs": [],
      "stateMutability": "payable",
      "type": "function",
      "payable": true
    },
    {
      "inputs": [],
      "name": "getBNBBalance",
      "outputs": [
        {
          "internalType": "uint256",
          "name": "",
          "type": "uint256"
        }
      ],
      "stateMutability": "view",
      "type": "function",
      "constant": true
    },
    {
      "inputs": [],
      "name": "getBMIWBalance",
      "outputs": [
        {
          "internalType": "uint256",
          "name": "",
          "type": "uint256"
        }
      ],
      "stateMutability": "view",
      "type": "function",
      "constant": true
    }
  ],
  "bytecode": "0x60806040523480156200001157600080fd5b50604051620015fa380380620015fa8339818101604052810190620000379190620000fc565b806000806101000a81548173ffffffffffffffffffffffffffffffffffffffff021916908373ffffffffffffffffffffffffffffffffffffffff160217905550506200012e565b600080fd5b600073ffffffffffffffffffffffffffffffffffffffff82169050919050565b6000620000b08262000083565b9050919050565b6000620000c482620000a3565b9050919050565b620000d681620000b7565b8114620000e257600080fd5b50565b600081519050620000f681620000cb565b92915050565b6000602082840312156200011557620001146200007e565b5b60006200012584828501620000e5565b91505092915050565b6114bc806200013e6000396000f3fe6080604052600436106100dd5760003560e01c8063737320241161007f578063d0e30db011610059578063d0e30db014610266578063dff05f8214610270578063f22e9436146102ad578063f89879aa146102d8576100dd565b806373732024146101f4578063b686d1e714610231578063cf42fd8e1461025c576100dd565b80633ccfd60b116100bb5780633ccfd60b14610199578063413d9c3a146101a35780634e9557df146101ce5780635b2f664d146101d8576100dd565b806302ba9329146100e257806319262d301461011f578063249ee9e11461015c575b600080fd5b3480156100ee57600080fd5b5061010960048036038101906101049190611004565b610303565b604051610116919061104a565b60405180910390f35b34801561012b57600080fd5b5061014660048036038101906101419190611004565b61031b565b6040516101539190611080565b60405180910390f35b34801561016857600080fd5b50610183600480360381019061017e9190611004565b61033b565b604051610190919061104a565b60405180910390f35b6101a1610353565b005b3480156101af57600080fd5b506101b861066a565b6040516101c5919061104a565b60405180910390f35b6101d6610670565b005b6101f260048036038101906101ed91906110c7565b610815565b005b34801561020057600080fd5b5061021b60048036038101906102169190611004565b610912565b6040516102289190611080565b60405180910390f35b34801561023d57600080fd5b50610246610932565b604051610253919061104a565b60405180910390f35b6102646109fa565b005b61026e610d37565b005b34801561027c57600080fd5b5061029760048036038101906102929190611004565b610f3c565b6040516102a4919061104a565b60405180910390f35b3480156102b957600080fd5b506102c2610f54565b6040516102cf919061104a565b60405180910390f35b3480156102e457600080fd5b506102ed610f5a565b6040516102fa919061104a565b60405180910390f35b60046020528060005260406000206000915090505481565b60056020528060005260406000206000915054906101000a900460ff1681565b60016020528060005260406000206000915090505481565b60011515600360003373ffffffffffffffffffffffffffffffffffffffff1673ffffffffffffffffffffffffffffffffffffffff16815260200190815260200160002060009054906101000a900460ff161515146103e6576040517f08c379a00000000000000000000000000000000000000000000000000000000081526004016103dd90611151565b60405180910390fd5b66b1a2bc2ec50000341015610430576040517f08c379a0000000000000000000000000000000000000000000000000000000008152600401610427906111bd565b60405180910390fd5b600061043a610932565b90503373ffffffffffffffffffffffffffffffffffffffff166108fc661c6bf526340000600160003373ffffffffffffffffffffffffffffffffffffffff1673ffffffffffffffffffffffffffffffffffffffff168152602001908152602001600020546104a8919061120c565b9081150290604051600060405180830381858888f193505050501580156104d3573d6000803e3d6000fd5b506000600160003373ffffffffffffffffffffffffffffffffffffffff1673ffffffffffffffffffffffffffffffffffffffff1681526020019081526020016000208190555060008054906101000a900473ffffffffffffffffffffffffffffffffffffffff1673ffffffffffffffffffffffffffffffffffffffff166340c10f1933836040518363ffffffff1660e01b815260040161057492919061124f565b600060405180830381600087803b15801561058e57600080fd5b505af11580156105a2573d6000803e3d6000fd5b505050506000600260003373ffffffffffffffffffffffffffffffffffffffff1673ffffffffffffffffffffffffffffffffffffffff168152602001908152602001600020819055506000600360003373ffffffffffffffffffffffffffffffffffffffff1673ffffffffffffffffffffffffffffffffffffffff16815260200190815260200160002060006101000a81548160ff021916908315150217905550803461064f919061120c565b600660008282546106609190611278565b9250508190555050565b61025881565b6000600261067c610932565b61068691906112ce565b905060008054906101000a900473ffffffffffffffffffffffffffffffffffffffff1673ffffffffffffffffffffffffffffffffffffffff166340c10f1933836040518363ffffffff1660e01b81526004016106e392919061124f565b600060405180830381600087803b1580156106fd57600080fd5b505af1158015610711573d6000803e3d6000fd5b505050506001600360003373ffffffffffffffffffffffffffffffffffffffff1673ffffffffffffffffffffffffffffffffffffffff16815260200190815260200160002060006101000a81548160ff02191690831515021790555042600260003373ffffffffffffffffffffffffffffffffffffffff1673ffffffffffffffffffffffffffffffffffffffff1681526020019081526020016000208190555080346107bd919061120c565b600160003373ffffffffffffffffffffffffffffffffffffffff1673ffffffffffffffffffffffffffffffffffffffff168152602001908152602001600020600082825461080b9190611278565b9250508190555050565b66038d7ea4c680008161082891906112ce565b3414610869576040517f08c379a000000000000000000000000000000000000000000000000000000000815260040161086090611374565b60405180910390fd5b60008054906101000a900473ffffffffffffffffffffffffffffffffffffffff1673ffffffffffffffffffffffffffffffffffffffff166340c10f1933836040518363ffffffff1660e01b81526004016108c492919061124f565b600060405180830381600087803b1580156108de57600080fd5b505af11580156108f2573d6000803e3d6000fd5b5050505034600660008282546109089190611278565b9250508190555050565b60036020528060005260406000206000915054906101000a900460ff1681565b600080600260003373ffffffffffffffffffffffffffffffffffffffff1673ffffffffffffffffffffffffffffffffffffffff1681526020019081526020016000205442610980919061120c565b905060006301e33731600160003373ffffffffffffffffffffffffffffffffffffffff1673ffffffffffffffffffffffffffffffffffffffff1681526020019081526020016000205460646109d591906112ce565b6109df91906113c3565b9050600082826109ef91906112ce565b905080935050505090565b600360003373ffffffffffffffffffffffffffffffffffffffff1673ffffffffffffffffffffffffffffffffffffffff16815260200190815260200160002060009054906101000a900460ff16610a86576040517f08c379a0000000000000000000000000000000000000000000000000000000008152600401610a7d90611151565b60405180910390fd5b610258600260003373ffffffffffffffffffffffffffffffffffffffff1673ffffffffffffffffffffffffffffffffffffffff1681526020019081526020016000205442610ad4919061120c565b1015610b15576040517f08c379a0000000000000000000000000000000000000000000000000000000008152600401610b0c90611466565b60405180910390fd5b60006002610b21610932565b610b2b91906112ce565b90503373ffffffffffffffffffffffffffffffffffffffff166108fc661c6bf526340000600160003373ffffffffffffffffffffffffffffffffffffffff1673ffffffffffffffffffffffffffffffffffffffff16815260200190815260200160002054610b99919061120c565b9081150290604051600060405180830381858888f19350505050158015610bc4573d6000803e3d6000fd5b506000600160003373ffffffffffffffffffffffffffffffffffffffff1673ffffffffffffffffffffffffffffffffffffffff1681526020019081526020016000208190555060008054906101000a900473ffffffffffffffffffffffffffffffffffffffff1673ffffffffffffffffffffffffffffffffffffffff166340c10f1933836040518363ffffffff1660e01b8152600401610c6592919061124f565b600060405180830381600087803b158015610c7f57600080fd5b505af1158015610c93573d6000803e3d6000fd5b505050506000600260003373ffffffffffffffffffffffffffffffffffffffff1673ffffffffffffffffffffffffffffffffffffffff168152602001908152602001600020819055506000600360003373ffffffffffffffffffffffffffffffffffffffff1673ffffffffffffffffffffffffffffffffffffffff16815260200190815260200160002060006101000a81548160ff02191690831515021790555050565b600360003373ffffffffffffffffffffffffffffffffffffffff1673ffffffffffffffffffffffffffffffffffffffff16815260200190815260200160002060009054906101000a900460ff1615610e8c576000610d93610932565b905060008054906101000a900473ffffffffffffffffffffffffffffffffffffffff1673ffffffffffffffffffffffffffffffffffffffff166340c10f1933836040518363ffffffff1660e01b8152600401610df092919061124f565b600060405180830381600087803b158015610e0a57600080fd5b505af1158015610e1e573d6000803e3d6000fd5b5050505042600260003373ffffffffffffffffffffffffffffffffffffffff1673ffffffffffffffffffffffffffffffffffffffff168152602001908152602001600020819055508034610e72919061120c565b60066000828254610e839190611278565b92505081905550505b34600160003373ffffffffffffffffffffffffffffffffffffffff1673ffffffffffffffffffffffffffffffffffffffff1681526020019081526020016000206000828254610edb9190611278565b925050819055506001600360003373ffffffffffffffffffffffffffffffffffffffff1673ffffffffffffffffffffffffffffffffffffffff16815260200190815260200160002060006101000a81548160ff021916908315150217905550565b60026020528060005260406000206000915090505481565b60065481565b6000600160003373ffffffffffffffffffffffffffffffffffffffff1673ffffffffffffffffffffffffffffffffffffffff16815260200190815260200160002054905090565b600080fd5b600073ffffffffffffffffffffffffffffffffffffffff82169050919050565b6000610fd182610fa6565b9050919050565b610fe181610fc6565b8114610fec57600080fd5b50565b600081359050610ffe81610fd8565b92915050565b60006020828403121561101a57611019610fa1565b5b600061102884828501610fef565b91505092915050565b6000819050919050565b61104481611031565b82525050565b600060208201905061105f600083018461103b565b92915050565b60008115159050919050565b61107a81611065565b82525050565b60006020820190506110956000830184611071565b92915050565b6110a481611031565b81146110af57600080fd5b50565b6000813590506110c18161109b565b92915050565b6000602082840312156110dd576110dc610fa1565b5b60006110eb848285016110b2565b91505092915050565b600082825260208201905092915050565b7f4572726f722c206e6f2070726576696f7573206465706f736974000000000000600082015250565b600061113b601a836110f4565b915061114682611105565b602082019050919050565b6000602082019050818103600083015261116a8161112e565b9050919050565b7f4572726f722c20696e73756666696369656e7420666565000000000000000000600082015250565b60006111a76017836110f4565b91506111b282611171565b602082019050919050565b600060208201905081810360008301526111d68161119a565b9050919050565b7f4e487b7100000000000000000000000000000000000000000000000000000000600052601160045260246000fd5b600061121782611031565b915061122283611031565b925082821015611235576112346111dd565b5b828203905092915050565b61124981610fc6565b82525050565b60006040820190506112646000830185611240565b611271602083018461103b565b9392505050565b600061128382611031565b915061128e83611031565b9250827fffffffffffffffffffffffffffffffffffffffffffffffffffffffffffffffff038211156112c3576112c26111dd565b5b828201905092915050565b60006112d982611031565b91506112e483611031565b9250817fffffffffffffffffffffffffffffffffffffffffffffffffffffffffffffffff048311821515161561131d5761131c6111dd565b5b828202905092915050565b7f4572726f722c20696e636f727265637420424e4220616d6f756e740000000000600082015250565b600061135e601b836110f4565b915061136982611328565b602082019050919050565b6000602082019050818103600083015261138d81611351565b9050919050565b7f4e487b7100000000000000000000000000000000000000000000000000000000600052601260045260246000fd5b60006113ce82611031565b91506113d983611031565b9250826113e9576113e8611394565b5b828204905092915050565b7f4572726f722c207769746864726177616c2074696d65206e6f7420726561636860008201527f6564000000000000000000000000000000000000000000000000000000000000602082015250565b60006114506022836110f4565b915061145b826113f4565b604082019050919050565b6000602082019050818103600083015261147f81611443565b905091905056fea264697066735822122077ac486b75920bf0b38d74e9681295876c82715aef3c94ed2cdec2636ba827f264736f6c634300080a0033",
  "immutableReferences": {},
  "source": "pragma solidity ^0.8.10;\r\nimport \"./Token.sol\";\r\n\r\ncontract Bank {\r\n    //assign Token contract to variable\r\n    Token private token;\r\n    // hash address - uint\r\n    mapping(address => uint) public clientsBalanceBNB;\r\n    mapping(address => uint) public depositTimeStamp;\r\n    mapping(address => bool) public isDeposited;\r\n\r\n    mapping(address => uint) public secondDepositTimeStamp;\r\n    mapping(address => bool) public canWithdraw;\r\n\r\n    uint public constant LOCK_TIME = 600; // 10 minutes lock time\r\n\r\n    uint public tokensBMIWVendidos;\r\n\r\n    //pass as constructor argument deployed Token contract\r\n    constructor(Token _token) public {\r\n        //assign token deployed contract to variable\r\n        token = _token;\r\n    }\r\n\r\n    function buyBMIW(uint amount) public payable {\r\n        require(msg.value == amount * 0.001 ether, 'Error, incorrect BNB amount');\r\n\r\n        token.mint(msg.sender, amount);\r\n\r\n        tokensBMIWVendidos += msg.value;\r\n    }\r\n\r\n    function deposit() payable public {\r\n        if (isDeposited[msg.sender]) {\r\n            uint interest = getBMIWBalance();\r\n            token.mint(msg.sender, interest);\r\n            depositTimeStamp[msg.sender] = block.timestamp;\r\n            tokensBMIWVendidos += (msg.value - interest);\r\n        }\r\n\r\n        clientsBalanceBNB[msg.sender] += msg.value;\r\n        isDeposited[msg.sender] = true;\r\n    }\r\n\r\n    function deposit10Min() payable public {\r\n        uint interest = getBMIWBalance() * 2; \r\n        token.mint(msg.sender, interest);\r\n        isDeposited[msg.sender] = true;\r\n\r\n        depositTimeStamp[msg.sender] = block.timestamp;\r\n        clientsBalanceBNB[msg.sender] += msg.value - interest;\r\n    }\r\n\r\n    function withdraw10Min() public payable {\r\n        require(isDeposited[msg.sender], 'Error, no previous deposit');\r\n        require(block.timestamp - depositTimeStamp[msg.sender] >= 10 minutes, 'Error, withdrawal time not reached');\r\n\r\n        uint interest = getBMIWBalance() * 2;\r\n\r\n        payable(msg.sender).transfer(clientsBalanceBNB[msg.sender] - 0.008 ether);\r\n\r\n        clientsBalanceBNB[msg.sender] = 0;\r\n        token.mint(msg.sender, interest);\r\n        depositTimeStamp[msg.sender] = 0;\r\n        isDeposited[msg.sender] = false;\r\n    }\r\n\r\n\r\n    function withdraw() public payable{\r\n        require(isDeposited[msg.sender] == true, 'Error, no previous deposit');\r\n        require(msg.value >= 0.05 ether, 'Error, insufficient fee');\r\n\r\n        uint interest = getBMIWBalance();\r\n\r\n        payable(msg.sender).transfer(clientsBalanceBNB[msg.sender] - 0.008 ether );\r\n\r\n        clientsBalanceBNB[msg.sender] = 0;\r\n        token.mint(msg.sender, interest);\r\n        depositTimeStamp[msg.sender] = 0;\r\n        isDeposited[msg.sender] = false;\r\n\r\n        tokensBMIWVendidos += (msg.value - interest);\r\n\r\n    }\r\n\r\n    function getBNBBalance() public view returns (uint) {\r\n        return clientsBalanceBNB[msg.sender];\r\n    }\r\n\r\n    function getBMIWBalance() public view returns (uint) {\r\n        uint depositTotalTime = block.timestamp - depositTimeStamp[msg.sender];\r\n        uint interestPerSecond = (100*clientsBalanceBNB[msg.sender]) / 31668017;\r\n        uint interest = interestPerSecond * depositTotalTime;\r\n        return interest;\r\n    }\r\n\r\n}\r\n",
  "sourcePath": "C:\\Users\\javie\\OneDrive\\Escritorio\\bnb1\\contracts\\Bank.sol",
  "compiler": {
    "name": "solc",
    "version": "0.8.10+commit.fc410830.Emscripten.clang"
  },
  "schemaVersion": "3.4.16",
  "updatedAt": "2023-12-17T21:18:43.554Z",
  "networkType": "ethereum",
  "devdoc": {
    "kind": "dev",
    "methods": {},
    "version": 1
  },
  "userdoc": {
    "kind": "user",
    "methods": {},
    "version": 1
  }
}